{
  "_format": "hh-sol-artifact-1",
  "contractName": "Play",
  "sourceName": "contracts/Play.sol",
  "abi": [
    {
      "anonymous": false,
      "inputs": [
        {
          "indexed": false,
          "internalType": "address",
          "name": "receiver",
          "type": "address"
        },
        {
          "indexed": false,
          "internalType": "uint256",
          "name": "amount",
          "type": "uint256"
        }
      ],
      "name": "Earn",
      "type": "event"
    },
    {
      "anonymous": false,
      "inputs": [
        {
          "indexed": false,
          "internalType": "address",
          "name": "sender",
          "type": "address"
        },
        {
          "indexed": false,
          "internalType": "uint256",
          "name": "amount",
          "type": "uint256"
        }
      ],
      "name": "Learn",
      "type": "event"
    },
    {
      "inputs": [
        {
          "internalType": "address",
          "name": "",
          "type": "address"
        }
      ],
      "name": "balances",
      "outputs": [
        {
          "internalType": "uint256",
          "name": "",
          "type": "uint256"
        }
      ],
      "stateMutability": "view",
      "type": "function"
    },
    {
      "inputs": [
        {
          "internalType": "uint256",
          "name": "amount",
          "type": "uint256"
        }
      ],
      "name": "earn",
      "outputs": [
        {
          "internalType": "bool",
          "name": "success",
          "type": "bool"
        }
      ],
      "stateMutability": "nonpayable",
      "type": "function"
    },
    {
      "inputs": [],
      "name": "learn",
      "outputs": [],
      "stateMutability": "payable",
      "type": "function"
    },
    {
      "stateMutability": "payable",
      "type": "receive"
    }
  ],
  "bytecode": "0x608060405234801561001057600080fd5b506105b7806100206000396000f3fe6080604052600436106100385760003560e01c80631cded66d1461004457806327e235e31461004e578063e65a01171461008b5761003f565b3661003f57005b600080fd5b61004c6100c8565b005b34801561005a57600080fd5b50610075600480360381019061007091906102f7565b610158565b60405161008291906103fd565b60405180910390f35b34801561009757600080fd5b506100b260048036038101906100ad9190610320565b610170565b6040516100bf91906103c2565b60405180910390f35b7f4f198146570ea98a08ba8ba14ba0ff3e41115a8a4d6e90d3ca50c34ed3fe630233346040516100f9929190610399565b60405180910390a1346000803373ffffffffffffffffffffffffffffffffffffffff1673ffffffffffffffffffffffffffffffffffffffff168152602001908152602001600020600082825461014f9190610429565b92505081905550565b60006020528060005260406000206000915090505481565b6000816000803373ffffffffffffffffffffffffffffffffffffffff1673ffffffffffffffffffffffffffffffffffffffff1681526020019081526020016000205410156101f3576040517f08c379a00000000000000000000000000000000000000000000000000000000081526004016101ea906103dd565b60405180910390fd5b7f9b883692663cf2cc636d9eda0392f2c7ff1a3163a5cef27fa1f8bb438ec73ab53383604051610224929190610399565b60405180910390a1816000803373ffffffffffffffffffffffffffffffffffffffff1673ffffffffffffffffffffffffffffffffffffffff168152602001908152602001600020600082825461027a919061047f565b925050819055503373ffffffffffffffffffffffffffffffffffffffff166108fc839081150290604051600060405180830381858888f193505050501580156102c7573d6000803e3d6000fd5b50919050565b6000813590506102dc81610553565b92915050565b6000813590506102f18161056a565b92915050565b60006020828403121561030957600080fd5b6000610317848285016102cd565b91505092915050565b60006020828403121561033257600080fd5b6000610340848285016102e2565b91505092915050565b610352816104b3565b82525050565b610361816104c5565b82525050565b6000610374601283610418565b915061037f8261052a565b602082019050919050565b610393816104f1565b82525050565b60006040820190506103ae6000830185610349565b6103bb602083018461038a565b9392505050565b60006020820190506103d76000830184610358565b92915050565b600060208201905081810360008301526103f681610367565b9050919050565b6000602082019050610412600083018461038a565b92915050565b600082825260208201905092915050565b6000610434826104f1565b915061043f836104f1565b9250827fffffffffffffffffffffffffffffffffffffffffffffffffffffffffffffffff03821115610474576104736104fb565b5b828201905092915050565b600061048a826104f1565b9150610495836104f1565b9250828210156104a8576104a76104fb565b5b828203905092915050565b60006104be826104d1565b9050919050565b60008115159050919050565b600073ffffffffffffffffffffffffffffffffffffffff82169050919050565b6000819050919050565b7f4e487b7100000000000000000000000000000000000000000000000000000000600052601160045260246000fd5b7f496e73756666696369656e742066756e64730000000000000000000000000000600082015250565b61055c816104b3565b811461056757600080fd5b50565b610573816104f1565b811461057e57600080fd5b5056fea2646970667358221220dd177a4c1a4ae1fd78544bfccae50003c8bae5d2c7f49f4388d9b5586ecb4f8764736f6c63430008040033",
  "linkReferences": {},
  "deployedLinkReferences": {}
}